:100000000C942A000C9447000C94E7040C944700CD
:100010000C9447000C9447000C9447000C94470044
:100020000C9447000C9447000C9447000C94470034
:100030000C9447000C9447000C9447000C94470024
:100040000C9447000C9447000C9447000C94470014
:100050000C94470011241FBECFE5D4E0DEBFCDBF16
:1000600010E0A0E6B0E0E0E9FFE002C005900D92EC
:10007000A838B107D9F720E0A8E8B0E001C01D9288
:10008000AE3BB207E1F70E947F000C94C6070C94C8
:10009000000087B1806C87B986B1866886B90895FB
:1000A00097B18770982B97B9369A3699FECF24B1BD
:1000B00035B197B18095892387B9932F80E0AC0142
:1000C000422B9A01822F932F089581B3806381BBC5
:1000D0008FB581608FBD8EB581608EBD08958FB55F
:1000E00080688FBD08958FB58F778FBD08958FB5C8
:1000F00080628FBD08958FB58F7D8FBD0895CF939A
:10010000DF93CDB7DEB768970FB6F894DEBF0FBEAA
:10011000CDBF2FEF8FEB91E2215080409040E1F76F
:1001200000C000000E94460463E083E00E94F104E6
:10013000FF24FA94F982FA82FB82FC821E861D86D5
:1001400000EC0F8718EA188B198A81E08A8BCE01A0
:100150000F960E945F06FF86F88AF98A1A8ACE01F6
:100160000F960E94790686E0E7E6F0E0DE015396FE
:1001700001900D928A95E1F7CE0143960E94B50653
:100180000F87188B198A8BE08A8BCE010F960E94FD
:10019000D90620E04AEC58EA62E080E00E9468025A
:1001A00001E314ED9E012F5F3F4F46E050E060E613
:1001B00070E080E00E94B7028D9A8C9AD59AD19A0D
:1001C000DD9AD99A959894980E9465000E944900FA
:1001D0000E947700DD9884E690E099BD88BDDD241B
:1001E000D3940F2EF4E6EF2EF12CF02D6894BB245F
:1001F000B1F8CC24C39482E094E00E94970482FF7B
:10020000FACF64E082E094E00E9486048E01055FEC
:100210001F4F9E01295F3F4F42E050E0BE016B5FE0
:100220007F4F80E00E9454038B859C858F339043E1
:1002300011F78D819E818E159F0509F44DC099237C
:10024000E4F4DD2091F00E947B00DD9AD99A959A22
:10025000949A8CEC9AE00197F1F700C00000959811
:100260009498D9980E946F00D12C8D81819590E04F
:100270009BBD8ABDED80FE802FC018161906E4F4E0
:1002800091E0D91691F00E947300DD9AD99A959A5F
:10029000949A8CEC9AE00197F1F700C000009598D1
:1002A0009498DD980E947700DC2C8D819E8199BD09
:1002B00088BDED80FE8010C092E0D91669F00E94E2
:1002C00073000E947B000E947300DD9AD99A959A70
:1002D000949AED80FE80DB2C80E00E9450009E8787
:1002E0008D870DE310E39E01295F3F4F42E050E010
:1002F000BE01635F7F4F80E00E94B7027CCF95B361
:10030000807F9F70982B95BB979A87E38A95F1F72A
:100310000000979887E38A95F1F700000895CF933E
:10032000C82F8CEC9AE00197F1F700C00000969876
:100330008C2F0E947F018C2F8295807F0E947F01ED
:10034000CF910895CF93C82F89E995E10197F1F7EF
:1003500000C0969A8C2F0E947F018C2F8295807FFF
:100360000E947F01CF910895CF93DF93EC018881A4
:10037000882331F021960E94A20189918111FBCF3F
:10038000DF91CF9108958FE085BB80EF84BB8E9A7B
:100390008F9A969897982FEF8FEA91E0215080409E
:1003A0009040E1F700C0000080E30E947F012FEF42
:1003B0008FEA91E0215080409040E1F700C00000BA
:1003C00080E30E947F012FEF8FEA91E0215080406F
:1003D0009040E1F700C0000080E30E947F012FEF12
:1003E0008FEA91E0215080409040E1F700C000008A
:1003F00080E20E947F012FEF8FEA91E02150804040
:100400009040E1F700C0000088E20E948F012FEFCA
:100410008FEA91E0215080409040E1F700C0000059
:1004200081E00E948F012FEF8FEA91E02150804000
:100430009040E1F700C000008CE00E948F012FEF98
:100440008FEA91E0215080409040E1F700C0000029
:1004500086E00E948F012FEF8FEA91E021508040CB
:100460009040E1F700C000000895CF93DF93EC01C6
:100470000E94C301CE010E94B4012FEF8FE79DE0DF
:10048000215080409040E1F700C00000DF91CF9103
:1004900008950F931F93CF93DF93082F10E00C5F05
:1004A0001F4F102F0027E801219660E1CE010E9426
:1004B0008604CE010E9497048111FBCF6FEFC80123
:1004C00002960E948604DF91CF911F910F910895AB
:1004D000EF92FF920F931F93CF93DF93C82FF62EC7
:1004E0008A01E22E962F91509530C8F50E9449025C
:1004F000D0E02496DC2FCC276E2D6F29CE010E94F0
:1005000086040115110559F0612FCE0104960E9451
:100510008604602FCE0105960E94860414C0809147
:1005200088009091890001969093890080938800BB
:10053000692FCE0104960E94860460918800CE0146
:1005400005960E948604219661E0CE010E948604F1
:10055000CE010E9497048111FBCF81E001C080E0B1
:10056000DF91CF911F910F91FF90EF9008959F928F
:10057000AF92BF92CF92DF92EF92FF920F931F93B1
:10058000CF93DF93982E6B01EA0179010E94590401
:100590008C179D0720F4892D0E945904EC01F70166
:1005A0006081611109C08181811106C08281811140
:1005B00003C08381882329F00115110511F02097CC
:1005C00039F48DE690E00E943502C0E0D0E05EC0D4
:1005D000A92CB12CF4E0AF0EB11CBA2CAA24C50191
:1005E0000C960E948604F7016181C5010D960E9458
:1005F0008604F7016281C5010E960E948604F70108
:100600006381C5010F960E948604612FC501409643
:100610000E948604602FC50141960E948604AE01A7
:10062000B601892D0E943B070E94870685010F5F56
:100630001F4F60E2C8010E948604C8010E9497040F
:100640008111FBCF11C0C7010E94970483FF10C026
:1006500068E1802F912F0E9486048EE790E00E942F
:100660003502C0E0D0E012C07501F2E0EF0EF11CDF
:100670000E2D1F2DC7010E94970484FFE4CF60E177
:100680008E2D9F2D0E9486040E94A0068C2F9D2FE8
:10069000DF91CF911F910F91FF90EF90DF90CF905E
:1006A000BF90AF909F9008952F923F924F925F928C
:1006B0007F928F929F92AF92BF92CF92DF92EF92F2
:1006C000FF920F931F93CF93DF93CDB7DEB7289799
:1006D0000FB6F894DEBF0FBECDBF782E4B01690177
:1006E000452B09F4B7C0E82EF12C84E0E80EF11C8C
:1006F000FE2CEE242701E8E24E0E511CC2010E949E
:100700009704B82EA12C1701F9E22F0E311CC1015C
:100710000E949704A80EB11CC7010E94970487701D
:100720008330C9F1843009F461C0823009F083C09C
:1007300028E030E0AE014F5F5F4FB501872D0E948A
:100740007E0788E0A80EB11C8981F60180838A812A
:1007500081838B8182838C8183839D8180E02E8144
:10076000820F911DF801918380831F8100E08885AD
:10077000080F111D9801A401B501872D0E947E0765
:10078000A00EB11E6B2DC2010E9486046A2DC1010C
:100790000E94860452C026E030E0AE014F5F5F4FFA
:1007A000B501872D0E947E07F6E0AF0EB11C89814E
:1007B000F60180838A8181838B8182838C8183830C
:1007C0001D8100E08E81080F111D9801A401B50163
:1007D000872D0E947E07A00EB11E6B2DC2010E94C4
:1007E00086046A2DC1010E94860427C022E030E001
:1007F000AE014F5F5F4FB501872D0E947E07F2E08B
:10080000AF0EB11C998180E00A8110E002501109FD
:10081000080F191F9801A401B501872D0E947E07BA
:10082000A00EB11E6B2DC2010E9486046A2DC1016B
:100830000E94860402C000E010E08FEFE81AF80A78
:1008400060E4C7010E948604C7010E9497048111D9
:10085000FBCF02C000E010E0802F912F28960FB64A
:10086000F894DEBF0FBECDBFDF91CF911F910F91E6
:10087000FF90EF90DF90CF90BF90AF909F908F90C0
:100880007F905F904F903F902F900895BC9A87B3D0
:10089000806A87BBC69AC49A8DB181658DB9089567
:1008A000E82FF0E0EE0FFF1FE657FF4F80819181A8
:1008B0000895E82FF0E0EE0FFF1FEE56FF4F808106
:1008C00091810895E82FF0E0EE0FFF1FE656FF4FED
:1008D000808191810895E82FF0E0EE0FFF1FEE5523
:1008E000FF4F808191810895E82FF0E0EE0FFF1F08
:1008F000E655FF4F808191810895E82FF0E0EE0FDB
:10090000FF1FEE54FF4F808191810895C49820EF1E
:100910002FB9779BFECF9FB9779BFECF8FB9779B7F
:10092000FECF6FB9779BFECFC49A81E00895C4983B
:100930002FE02FB9779BFECF9FB9779BFECF8FB962
:10094000779BFECF1FB8779BFECF8FB1C49A0895D7
:1009500041155105C9F0E62FF72F9A012E0F3F1FC1
:1009600070EFC4987FB9779BFECF9FB9779BFECF7E
:100970008FB9779BFECF61916FB9779BFECFC49AF9
:100980000196E217F30769F7842F952F0895411513
:100990005105D1F0E62FF72F9A012E0F3F1F7FE070
:1009A000C4987FB9779BFECF9FB9779BFECF8FB955
:1009B000779BFECF1FB8779BFECF6FB16193C49A30
:1009C0000196E217F30761F7842F952F08951F9280
:1009D0000F920FB60F9211240F900FBE0F901F9021
:1009E00018952F923F924F925F926F927F928F92C3
:1009F0009F92AF92BF92CF92DF92EF92FF920F93AE
:100A00001F93CF93DF9300D000D000D0CDB7DEB7D7
:100A1000E82EF62E682F8BE190E00E9486046F2D61
:100A20008AE190E00E94860480E090E49093B30015
:100A30008093B20080E090E69093AB008093AA0090
:100A4000A2E9B0E06AE870E00F2EFAE98F2EF0E03C
:100A50009F2EF02D0F2EF2EA6F2EF0E07F2EF02D5C
:100A600020E030E0AA24A394B12C00E010E080E064
:100A700090E040E050E04E2C512C2F2C312CBE83C6
:100A8000AD839A8389831C830B83FB0115C00B8183
:100A90001C810F5F1F4F1C830B838D819E810296EB
:100AA0009E838D8332969FEFA91AB90AA2E08A0E1F
:100AB000911CB2E06B0E711C6D817E81DB011D9279
:100AC0001C92CF01118210824115B0E25B070CF03D
:100AD00046C07201022E02C0F594E7940A94E2F730
:100AE00003E0E022FF2411E0E116F104C1F01CF460
:100AF000EF2851F034C0B2E0EB16F104D9F003E076
:100B0000E016F10461F521C000E014E0DB010D9373
:100B10001C930FEF13E0D3010D931C9320C000E052
:100B200018E0DB010D931C930FEF17E0D3010D9339
:100B30001C9315C000E010E1DB010D931C930FEF37
:100B40001FE0D3010D931C930AC000E010E2DB010B
:100B50000D931C930FEF1FE1D3010D931C93A981FB
:100B6000BA81A115B0420CF046C07101022E02C03C
:100B7000F594E7940A94E2F713E0E122FF24A1E060
:100B8000EA16F104C1F01CF4EF2851F034C002E081
:100B9000E016F104D9F013E0E116F10461F521C08B
:100BA00000E014E0DC010D931C930FEF13E0D4017F
:100BB0000D931C9320C000E018E0DC010D931C9302
:100BC0000FEF17E0D4010D931C9315C000E010E166
:100BD000DC010D931C930FEF1FE0D4010D931C93C8
:100BE0000AC000E010E2DC010D931C930FEF1FE13F
:100BF000D4010D931C932E5F3F4FDB01ED90FC90D1
:100C00004E0D5F1DDC01ED90FC9009811A810E0DE7
:100C10001F1D1A830983AB81BC81AB2B09F437CF2D
:100C20000F2EF2EBEF2EF0E0FF2EF02DE20EF31E72
:100C30006701B2E0CB1AD10804E0E01AF108625073
:100C40007109D701ED90FC90DB016D917C91E60E6E
:100C5000F71ED601ED92FC92B90166557F4F7B01DC
:100C6000B2E0EB1AF108645071090297DB016D9153
:100C70007C91DC018D919C91680F791FD7016D9358
:100C80007C93B4E0AB16B1040CF401CF26960FB6FA
:100C9000F894DEBF0FBECDBFDF91CF911F910F91B2
:100CA000FF90EF90DF90CF90BF90AF909F908F908C
:100CB0007F906F905F904F903F902F900895CF93CB
:100CC000DF93EC01688181E090E00E9486046981F5
:100CD00082E090E00E9486046A8183E090E00E94B6
:100CE00086046B8184E090E00E948604DF91CF91BE
:100CF0000895FC0180818093BA0081818093BB00BC
:100D000082818093BC0083818093BD0008956091AF
:100D1000BA0085E090E00E9486046091BB0086E006
:100D200090E00E9486046091BC0087E090E00E9401
:100D300086046091BD0088E090E00E9486040895DA
:100D400060E085E090E00E94860460E086E090E04C
:100D50000E94860460E087E090E00E94860460E0E4
:100D600088E090E00E9486040895CF93DF93EC0121
:100D7000688189E090E00E94860469818AE090E0C1
:100D80000E9486046A818BE090E00E9486046B8159
:100D90008CE090E00E9486046C818DE090E00E94DF
:100DA00086046D818EE090E00E948604DF91CF91F1
:100DB0000895CF93DF93EC0168818FE090E00E946B
:100DC0008604698180E190E00E9486046A8181E165
:100DD00090E00E9486046B8182E190E00E9486048C
:100DE000DF91CF9108959F92AF92BF92CF92DF9201
:100DF000EF92FF920F931F93CF93DF93982E7B0177
:100E0000EA0189010E946B04C823D923892D0E941D
:100E10007D046E01C80ED91E5E01A00EB11E892D83
:100E20000E9459048A159B05A8F49C012C1B3D0BBC
:100E3000E901A901B701C6010E94A804EC0EFD1E3C
:100E40000C1B1D0B892D0E947D04A801B7010E9477
:100E5000A80405C0A801B701C6010E94A804DF913B
:100E6000CF911F910F91FF90EF90DF90CF90BF90A7
:100E7000AF909F9008959F92AF92BF92CF92DF92D2
:100E8000EF92FF920F931F93CF93DF93982E5B0106
:100E90008A01E82EF12C84E0E80EF11CFE2CEE24F1
:100EA000670184E2C80ED11CC6010E949704D82FA6
:100EB00080E0C82F85E2E80EF11CC7010E9497046C
:100EC000C80FD11D9801AE01B501892D0E94F3060E
:100ED000C00FD11F6D2FC6010E9486046C2FC70161
:100EE0000E948604DF91CF911F910F91FF90EF90A8
:100EF000DF90CF90BF90AF909F9008959F92AF9258
:100F0000BF92CF92DF92EF92FF920F931F93CF93F6
:100F1000DF93982EEB017A0189010E946204C823B5
:100F2000D923892D0E9474046E01C80ED91E5E015A
:100F3000A00EB11E892D0E9450048A159B05A8F4AD
:100F40009C012C1B3D0BE901A901B701C6010E94C0
:100F5000C704EC0EFD1E0C1B1D0B892D0E94740492
:100F6000A801B7010E94C70405C0A801B701C601C6
:100F70000E94C704DF91CF911F910F91FF90EF90D6
:100F8000DF90CF90BF90AF909F900895F894FFCFDF
:100F900068656C6C6F00008A26E01ADD8469702C2D
:100FA00020706F72742C206661696C6564007469CE
:080FB0006D6564206F7574008B
:00000001FF
