:100000000C942A000C9447000C94F6040C944700BE
:100010000C9447000C9447000C9447000C94470044
:100020000C9447000C9447000C9447000C94470034
:100030000C9447000C9447000C9447000C94470024
:100040000C9447000C9447000C9447000C94470014
:100050000C94470011241FBECFE5D4E0DEBFCDBF16
:1000600010E0A0E6B0E0EEEAFFE002C005900D92DD
:10007000A838B107D9F720E0A8E8B0E001C01D9288
:10008000AE3BB207E1F70E9473000C94D5070C94C5
:100090000000C09A83B7866083BF089512BE2CEC1F
:1000A00084E393E0215080409040E1F700C082B7A4
:1000B000089581B3806381BB8FB581608FBD8EB59C
:1000C00081608EBD08958FB580688FBD08958FB50E
:1000D0008F778FBD08958FB580628FBD08958FB5DE
:1000E0008F7D8FBD0895CF93DF93CDB7DEB768972F
:1000F0000FB6F894DEBF0FBECDBF2FEF8FEB91E2AE
:10010000215080409040E1F700C000000E9455045B
:1001100063E083E00E94000580EC898388EA8A839B
:100120001B8215E01C831E861D860F2EFCEACF2E37
:10013000F02DCF866894DD24D4F8D88A00E4098BAA
:1001400081E08A8BCE010F960E946E068FEF8F871B
:10015000888B898B1A8ACE010F960E94880686E0CA
:10016000E7E6F0E0DE01539601900D928A95E1F703
:10017000CE0143960E94C406CF86D88A098B1A8B7B
:10018000CE010F960E94E80620E04AEC58EA62E0B1
:1001900080E00E94770201E314ED9E012F5F3F4F44
:1001A00046E050E060E670E080E00E94C6028D9A72
:1001B0008C9AD59AD19ADD9AD99A959894980E945A
:1001C00059000E9449000E946B00DD9884E690E08F
:1001D00099BD88BDDD24D3940F2EF4E6EF2EF12CCB
:1001E000F02D6894BB24B1F8CC24C39482E094E051
:1001F0000E94A60482FFFACF64E082E094E00E94AD
:1002000095048E01055F1F4F9E01295F3F4F42E01D
:1002100050E0BE016B5F7F4F80E00E9463038B85DF
:100220009C858933904311F78D819E818E159F05A2
:1002300009F454C09923FCF4DD20A9F00E946F005A
:10024000DD9AD99A959A949A8FEF9FE523E0815091
:1002500090402040E1F700C0000095989498D9980C
:100260000E946300D12C8D81819590E09BBD8ABD59
:10027000ED80FE8033C018161906FCF481E0D81614
:10028000A9F00E946700DD9AD99A959A949A9FEFF7
:100290002FE583E0915020408040E1F700C000004E
:1002A00095989498DD980E946B00DC2C8D819E813E
:1002B00099BD88BDED80FE8011C092E0D91649F14C
:1002C0000E9467000E946F000E946700DD9AD99A21
:1002D000959A949AED80FE80DB2C1BC00E944E0004
:1002E00090E0DD2019F09E878D8705C0919581955E
:1002F00091099E878D870BE310E39E01295F3F4F95
:1003000042E050E0BE01635F7F4F80E00E94C60282
:100310006DCF0E944E008D871E86EDCF95B3807FF6
:100320009F70982B95BB979A87E38A95F1F7000009
:10033000979887E38A95F1F700000895CF93C82F27
:100340008CEC9AE00197F1F700C0000096988C2F92
:100350000E948E018C2F8295807F0E948E01CF910A
:100360000895CF93C82F89E995E10197F1F700C06F
:10037000969A8C2F0E948E018C2F8295807F0E94EE
:100380008E01CF910895CF93DF93EC01888188236C
:1003900031F021960E94B10189918111FBCFDF914B
:1003A000CF9108958FE085BB80EF84BB8E9A8F9AA2
:1003B000969897982FEF8FEA91E0215080409040D7
:1003C000E1F700C0000080E30E948E012FEF8FEA6A
:1003D00091E0215080409040E1F700C0000080E3B0
:1003E0000E948E012FEF8FEA91E0215080409040D3
:1003F000E1F700C0000080E30E948E012FEF8FEA3A
:1004000091E0215080409040E1F700C0000080E280
:100410000E948E012FEF8FEA91E0215080409040A2
:10042000E1F700C0000088E20E949E012FEF8FEAF2
:1004300091E0215080409040E1F700C0000081E051
:100440000E949E012FEF8FEA91E021508040904062
:10045000E1F700C000008CE00E949E012FEF8FEAC0
:1004600091E0215080409040E1F700C0000086E01C
:100470000E949E012FEF8FEA91E021508040904032
:10048000E1F700C000000895CF93DF93EC010E94D4
:10049000D201CE010E94C3012FEF8FE79DE02150D2
:1004A00080409040E1F700C00000DF91CF910895B7
:1004B0000F931F93CF93DF93082F10E00C5F1F4F14
:1004C000102F0027E801219660E1CE010E949504DB
:1004D000CE010E94A6048111FBCF6FEFC8010296E6
:1004E0000E949504DF91CF911F910F910895EF9293
:1004F000FF920F931F93CF93DF93C82FF62E8A019D
:10050000E22E962F91509530C8F50E945802D0E007
:100510002496DC2FCC276E2D6F29CE010E949504E6
:100520000115110559F0612FCE0104960E94950422
:10053000602FCE0105960E94950414C0809188001A
:100540009091890001969093890080938800692F8B
:10055000CE0104960E94950460918800CE01059614
:100560000E949504219661E0CE010E949504CE017F
:100570000E94A6048111FBCF81E001C080E0DF91E1
:10058000CF911F910F91FF90EF9008959F92AF929E
:10059000BF92CF92DF92EF92FF920F931F93CF9370
:1005A000DF93982E6B01EA0179010E9468048C1791
:1005B0009D0720F4892D0E946804EC01F7016081F9
:1005C000611109C08181811106C08281811103C03E
:1005D0008381882329F00115110511F0209739F442
:1005E0008DE690E00E944402C0E0D0E05EC0A92CFD
:1005F000B12CF4E0AF0EB11CBA2CAA24C5010C96A4
:100600000E949504F7016181C5010D960E94950431
:10061000F7016281C5010E960E949504F70163817E
:10062000C5010F960E949504612FC50140960E9456
:100630009504602FC50141960E949504AE01B60154
:10064000892D0E944A070E94960685010F5F1F4F61
:1006500060E2C8010E949504C8010E94A6048111AD
:10066000FBCF11C0C7010E94A60483FF10C068E140
:10067000802F912F0E9495048EE790E00E94440203
:10068000C0E0D0E012C07501F2E0EF0EF11C0E2DBB
:100690001F2DC7010E94A60484FFE4CF60E18E2DC8
:1006A0009F2D0E9495040E94AF068C2F9D2FDF91F5
:1006B000CF911F910F91FF90EF90DF90CF90BF905F
:1006C000AF909F9008952F923F924F925F927F92AA
:1006D0008F929F92AF92BF92CF92DF92EF92FF9252
:1006E0000F931F93CF93DF93CDB7DEB728970FB645
:1006F000F894DEBF0FBECDBF782E4B016901452BAC
:1007000009F4B7C0E82EF12C84E0E80EF11CFE2CB1
:10071000EE242701E8E24E0E511CC2010E94A604FD
:10072000B82EA12C1701F9E22F0E311CC1010E9435
:10073000A604A80EB11CC7010E94A60487708330CE
:10074000C9F1843009F461C0823009F083C028E027
:1007500030E0AE014F5F5F4FB501872D0E948D07DE
:1007600088E0A80EB11C8981F60180838A8181838B
:100770008B8182838C8183839D8180E02E81820F97
:10078000911DF801918380831F8100E08885080F07
:10079000111D9801A401B501872D0E948D07A00E9F
:1007A000B11E6B2DC2010E9495046A2DC1010E94E9
:1007B000950452C026E030E0AE014F5F5F4FB501B7
:1007C000872D0E948D07F6E0AF0EB11C8981F601DE
:1007D00080838A8181838B8182838C8183831D8145
:1007E00000E08E81080F111D9801A401B501872D2D
:1007F0000E948D07A00EB11E6B2DC2010E949504B0
:100800006A2DC1010E94950427C022E030E0AE01AC
:100810004F5F5F4FB501872D0E948D07F2E0AF0E4D
:10082000B11C998180E00A8110E002501109080F83
:10083000191F9801A401B501872D0E948D07A00EF4
:10084000B11E6B2DC2010E9495046A2DC1010E9448
:10085000950402C000E010E08FEFE81AF80A60E4A7
:10086000C7010E949504C7010E94A6048111FBCF15
:1008700002C000E010E0802F912F28960FB6F89468
:10088000DEBF0FBECDBFDF91CF911F910F91FF90C3
:10089000EF90DF90CF90BF90AF909F908F907F9020
:1008A0005F904F903F902F900895BC9A87B3806AD5
:1008B00087BBC69AC49A8DB181658DB90895E82F1A
:1008C000F0E0EE0FFF1FE657FF4F80819181089502
:1008D000E82FF0E0EE0FFF1FEE56FF4F8081918171
:1008E0000895E82FF0E0EE0FFF1FE656FF4F8081DE
:1008F00091810895E82FF0E0EE0FFF1FEE55FF4FB6
:10090000808191810895E82FF0E0EE0FFF1FE655FA
:10091000FF4F808191810895E82FF0E0EE0FFF1FD7
:10092000EE54FF4F808191810895C49820EF2FB934
:10093000779BFECF9FB9779BFECF8FB9779BFECF7A
:100940006FB9779BFECFC49A81E00895C4982FE0D9
:100950002FB9779BFECF9FB9779BFECF8FB9779B3F
:10096000FECF1FB8779BFECF8FB1C49A0895411573
:100970005105C9F0E62FF72F9A012E0F3F1F70EF98
:10098000C4987FB9779BFECF9FB9779BFECF8FB975
:10099000779BFECF61916FB9779BFECFC49A01968A
:1009A000E217F30769F7842F952F08954115510534
:1009B000D1F0E62FF72F9A012E0F3F1F7FE0C4984A
:1009C0007FB9779BFECF9FB9779BFECF8FB9779B7F
:1009D000FECF1FB8779BFECF6FB16193C49A01968B
:1009E000E217F30761F7842F952F08951F920F9256
:1009F0000FB60F9211240F900FBE0F901F901895F5
:100A00002F923F924F925F926F927F928F929F921E
:100A1000AF92BF92CF92DF92EF92FF920F931F930C
:100A2000CF93DF9300D000D000D0CDB7DEB7E82E53
:100A3000F62E682F8BE190E00E9495046F2D8AE1DD
:100A400090E00E94950480E090E49093B30080933E
:100A5000B20080E090E69093AB008093AA00A2E9F8
:100A6000B0E06AE870E00F2EFAE98F2EF0E09F2EDA
:100A7000F02D0F2EF2EA6F2EF0E07F2EF02D20E009
:100A800030E0AA24A394B12C00E010E080E090E0D4
:100A900040E050E04E2C512C2F2C312CBE83AD83E6
:100AA0009A8389831C830B83FB0115C00B811C81F6
:100AB0000F5F1F4F1C830B838D819E8102969E8347
:100AC0008D8332969FEFA91AB90AA2E08A0E911C73
:100AD000B2E06B0E711C6D817E81DB011D921C9258
:100AE000CF01118210824115B0E25B070CF046C0C5
:100AF0007201022E02C0F594E7940A94E2F703E033
:100B0000E022FF2411E0E116F104C1F01CF4EF280B
:100B100051F034C0B2E0EB16F104D9F003E0E01676
:100B2000F10461F521C000E014E0DB010D931C939A
:100B30000FEF13E0D3010D931C9320C000E018E0E9
:100B4000DB010D931C930FEF17E0D3010D931C9362
:100B500015C000E010E1DB010D931C930FEF1FE0C7
:100B6000D3010D931C930AC000E010E2DB010D934A
:100B70001C930FEF1FE1D3010D931C93A981BA8140
:100B8000A115B0420CF046C07101022E02C0F594CE
:100B9000E7940A94E2F713E0E122FF24A1E0EA16C9
:100BA000F104C1F01CF4EF2851F034C002E0E0166B
:100BB000F104D9F013E0E116F10461F521C000E081
:100BC00014E0DC010D931C930FEF13E0D4010D939F
:100BD0001C9320C000E018E0DC010D931C930FEF84
:100BE00017E0D4010D931C9315C000E010E1DC0167
:100BF0000D931C930FEF1FE0D4010D931C930AC0BB
:100C000000E010E2DC010D931C930FEF1FE1D40113
:100C10000D931C932E5F3F4FDB01ED90FC904E0D2A
:100C20005F1DDC01ED90FC9009811A810E0D1F1DE6
:100C30001A830983AB81BC81AB2B09F437CF0F2E0C
:100C4000F2EBEF2EF0E0FF2EF02DE20EF31E670127
:100C5000B2E0CB1AD10804E0E01AF1086250710941
:100C6000D701ED90FC90DB016D917C91E60EF71EB3
:100C7000D601ED92FC92B90166557F4F7B01B2E03F
:100C8000EB1AF108645071090297DB016D917C91B8
:100C9000DC018D919C91680F791FD7016D937C9336
:100CA000B4E0AB16B1040CF401CF26960FB6F8945D
:100CB000DEBF0FBECDBFDF91CF911F910F91FF908F
:100CC000EF90DF90CF90BF90AF909F908F907F90EC
:100CD0006F905F904F903F902F900895CF93DF9348
:100CE000EC01688181E090E00E949504698182E0D6
:100CF00090E00E9495046A8183E090E00E94950450
:100D00006B8184E090E00E949504DF91CF9108957B
:100D1000FC0180818093BA0081818093BB00828135
:100D20008093BC0083818093BD0008956091BA00D8
:100D300085E090E00E9495046091BB0086E090E021
:100D40000E9495046091BC0087E090E00E949504A9
:100D50006091BD0088E090E00E949504089560E0F5
:100D600085E090E00E94950460E086E090E00E94BB
:100D7000950460E087E090E00E94950460E088E0E0
:100D800090E00E9495040895CF93DF93EC01688171
:100D900089E090E00E94950469818AE090E00E94D9
:100DA00095046A818BE090E00E9495046B818CE051
:100DB00090E00E9495046C818DE090E00E94950483
:100DC0006D818EE090E00E949504DF91CF910895AF
:100DD000CF93DF93EC0168818FE090E00E9495044F
:100DE000698180E190E00E9495046A8181E190E050
:100DF0000E9495046B8182E190E00E949504DF914E
:100E0000CF9108959F92AF92BF92CF92DF92EF92CF
:100E1000FF920F931F93CF93DF93982E7B01EA01EC
:100E200089010E947A04C823D923892D0E948C0449
:100E30006E01C80ED91E5E01A00EB11E892D0E9442
:100E400068048A159B05A8F49C012C1B3D0BE90145
:100E5000A901B701C6010E94B704EC0EFD1E0C1BD0
:100E60001D0B892D0E948C04A801B7010E94B704B4
:100E700005C0A801B701C6010E94B704DF91CF9158
:100E80001F910F91FF90EF90DF90CF90BF90AF90A8
:100E90009F9008959F92AF92BF92CF92DF92EF9270
:100EA000FF920F931F93CF93DF93982E5B018A01DC
:100EB000E82EF12C84E0E80EF11CFE2CEE246701F4
:100EC00084E2C80ED11CC6010E94A604D82F80E07F
:100ED000C82F85E2E80EF11CC7010E94A604C80FC6
:100EE000D11D9801AE01B501892D0E940207C00FE6
:100EF000D11F6D2FC6010E9495046C2FC7010E945F
:100F00009504DF91CF911F910F91FF90EF90DF90AB
:100F1000CF90BF90AF909F9008959F92AF92BF9255
:100F2000CF92DF92EF92FF920F931F93CF93DF93B5
:100F3000982EEB017A0189010E947104C823D923FC
:100F4000892D0E9483046E01C80ED91E5E01A00E79
:100F5000B11E892D0E945F048A159B05A8F49C018F
:100F60002C1B3D0BE901A901B701C6010E94D60463
:100F7000EC0EFD1E0C1B1D0B892D0E948304A80185
:100F8000B7010E94D60405C0A801B701C6010E949E
:100F9000D604DF91CF911F910F91FF90EF90DF90DA
:0E0FA000CF90BF90AF909F900895F894FFCF30
:100FAE0068656C6C6F00008A26E01ADD8369702C10
:100FBE0020706F72742C206661696C6564007469B0
:080FCE006D6564206F7574006D
:00000001FF
