:100000000C942A000C9447000C94EF040C944700C5
:100010000C9447000C9447000C9447000C94470044
:100020000C9447000C9447000C9447000C94470034
:100030000C9447000C9447000C9447000C94470024
:100040000C9447000C9447000C9447000C94470014
:100050000C94470011241FBECFE5D4E0DEBFCDBF16
:1000600010E0A0E6B0E0E0EAFFE002C005900D92EB
:10007000A838B107D9F720E0A8E8B0E001C01D9288
:10008000AE3BB207E1F70E9473000C94CE070C94CC
:100090000000C09A83B7866083BF089512BE2CEC1F
:1000A00084E393E0215080409040E1F700C082B7A4
:1000B000089581B3806381BB8FB581608FBD8EB59C
:1000C00081608EBD08958FB580688FBD08958FB50E
:1000D0008F778FBD08958FB580628FBD08958FB5DE
:1000E0008F7D8FBD0895CF93DF93CDB7DEB768972F
:1000F0000FB6F894DEBF0FBECDBF2FEF8FEB91E2AE
:10010000215080409040E1F700C000000E944E0462
:1001100063E083E00E94F904FF24FA94F982FA82F2
:10012000FB82FC821E861D8600EC0F8718EA188B66
:10013000198A81E08A8BCE010F960E946706FF869E
:10014000F88AF98A1A8ACE010F960E94810686E003
:10015000E7E6F0E0DE01539601900D928A95E1F713
:10016000CE0143960E94BD060F87188B198A8AE03C
:100170008A8BCE010F960E94E10620E04AEC58EAF5
:1001800062E080E00E94700201E314ED9E012F5FA7
:100190003F4F46E050E060E670E080E00E94BF0222
:1001A0008D9A8C9AD59AD19ADD9AD99A95989498E5
:1001B0000E9459000E9449000E946B00DD9884E66D
:1001C00090E099BD88BDDD24D3940F2EF4E6EF2E88
:1001D000F12CF02D6894BB24B1F8CC24C39482E0B8
:1001E00094E00E949F0482FFFACF64E082E094E0F2
:1001F0000E948E048E01055F1F4F9E01295F3F4FB5
:1002000042E050E0BE016B5F7F4F80E00E945C03E4
:100210008B859C858933904311F78D819E818E1546
:100220009F0509F454C09923FCF4DD20A9F00E9435
:100230006F00DD9AD99A959A949A8FEF9FE523E003
:10024000815090402040E1F700C0000095989498BC
:10025000D9980E946300D12C8D81819590E09BBD3F
:100260008ABDED80FE8033C018161906FCF481E0CB
:10027000D816A9F00E946700DD9AD99A959A949AA7
:100280009FEF2FE583E0915020408040E1F700C0D0
:10029000000095989498DD980E946B00DC2C8D816D
:1002A0009E8199BD88BDED80FE8011C092E0D91677
:1002B00049F10E9467000E946F000E946700DD9A6A
:1002C000D99A959A949AED80FE80DB2C1BC00E94EF
:1002D0004E0090E0DD2019F09E878D8705C0919536
:1002E000819591099E878D870BE310E39E01295F1D
:1002F0003F4F42E050E0BE01635F7F4F80E00E94CD
:10030000BF026DCF0E944E008D871E86EDCF95B344
:10031000807F9F70982B95BB979A87E38A95F1F71A
:100320000000979887E38A95F1F700000895CF932E
:10033000C82F8CEC9AE00197F1F700C00000969866
:100340008C2F0E9487018C2F8295807F0E948701CD
:10035000CF910895CF93C82F89E995E10197F1F7DF
:1003600000C0969A8C2F0E9487018C2F8295807FE7
:100370000E948701CF910895CF93DF93EC0188818C
:10038000882331F021960E94AA0189918111FBCF27
:10039000DF91CF9108958FE085BB80EF84BB8E9A6B
:1003A0008F9A969897982FEF8FEA91E0215080408E
:1003B0009040E1F700C0000080E30E9487012FEF2A
:1003C0008FEA91E0215080409040E1F700C00000AA
:1003D00080E30E9487012FEF8FEA91E02150804057
:1003E0009040E1F700C0000080E30E9487012FEFFA
:1003F0008FEA91E0215080409040E1F700C000007A
:1004000080E20E9487012FEF8FEA91E02150804027
:100410009040E1F700C0000088E20E9497012FEFB2
:100420008FEA91E0215080409040E1F700C0000049
:1004300081E00E9497012FEF8FEA91E021508040E8
:100440009040E1F700C000008CE00E9497012FEF80
:100450008FEA91E0215080409040E1F700C0000019
:1004600086E00E9497012FEF8FEA91E021508040B3
:100470009040E1F700C000000895CF93DF93EC01B6
:100480000E94CB01CE010E94BC012FEF8FE79DE0BF
:10049000215080409040E1F700C00000DF91CF91F3
:1004A00008950F931F93CF93DF93082F10E00C5FF5
:1004B0001F4F102F0027E801219660E1CE010E9416
:1004C0008E04CE010E949F048111FBCF6FEFC80103
:1004D00002960E948E04DF91CF911F910F91089593
:1004E000EF92FF920F931F93CF93DF93C82FF62EB7
:1004F0008A01E22E962F91509530C8F50E94510244
:10050000D0E02496DC2FCC276E2D6F29CE010E94DF
:100510008E040115110559F0612FCE0104960E9439
:100520008E04602FCE0105960E948E0414C0809127
:1005300088009091890001969093890080938800AB
:10054000692FCE0104960E948E0460918800CE012E
:1005500005960E948E04219661E0CE010E948E04D1
:10056000CE010E949F048111FBCF81E001C080E099
:10057000DF91CF911F910F91FF90EF9008959F927F
:10058000AF92BF92CF92DF92EF92FF920F931F93A1
:10059000CF93DF93982E6B01EA0179010E946104E9
:1005A0008C179D0720F4892D0E946104EC01F7014E
:1005B0006081611109C08181811106C08281811130
:1005C00003C08381882329F00115110511F02097BC
:1005D00039F48DE690E00E943D02C0E0D0E05EC0BC
:1005E000A92CB12CF4E0AF0EB11CBA2CAA24C50181
:1005F0000C960E948E04F7016181C5010D960E9440
:100600008E04F7016281C5010E960E948E04F701E7
:100610006381C5010F960E948E04612FC50140962B
:100620000E948E04602FC50141960E948E04AE0187
:10063000B601892D0E9443070E948F0685010F5F36
:100640001F4F60E2C8010E948E04C8010E949F04EF
:100650008111FBCF11C0C7010E949F0483FF10C00E
:1006600068E1802F912F0E948E048EE790E00E9417
:100670003D02C0E0D0E012C07501F2E0EF0EF11CC7
:100680000E2D1F2DC7010E949F0484FFE4CF60E15F
:100690008E2D9F2D0E948E040E94A8068C2F9D2FC8
:1006A000DF91CF911F910F91FF90EF90DF90CF904E
:1006B000BF90AF909F9008952F923F924F925F927C
:1006C0007F928F929F92AF92BF92CF92DF92EF92E2
:1006D000FF920F931F93CF93DF93CDB7DEB7289789
:1006E0000FB6F894DEBF0FBECDBF782E4B01690167
:1006F000452B09F4B7C0E82EF12C84E0E80EF11C7C
:10070000FE2CEE242701E8E24E0E511CC2010E948D
:100710009F04B82EA12C1701F9E22F0E311CC10144
:100720000E949F04A80EB11CC7010E949F048770FD
:100730008330C9F1843009F461C0823009F083C08C
:1007400028E030E0AE014F5F5F4FB501872D0E947A
:10075000860788E0A80EB11C8981F60180838A8112
:1007600081838B8182838C8183839D8180E02E8134
:10077000820F911DF801918380831F8100E088859D
:10078000080F111D9801A401B501872D0E9486074D
:10079000A00EB11E6B2DC2010E948E046A2DC101F4
:1007A0000E948E0452C026E030E0AE014F5F5F4FE2
:1007B000B501872D0E948607F6E0AF0EB11C898136
:1007C000F60180838A8181838B8182838C818383FC
:1007D0001D8100E08E81080F111D9801A401B50153
:1007E000872D0E948607A00EB11E6B2DC2010E94AC
:1007F0008E046A2DC1010E948E0427C022E030E0E1
:10080000AE014F5F5F4FB501872D0E948607F2E072
:10081000AF0EB11C998180E00A8110E002501109ED
:10082000080F191F9801A401B501872D0E948607A2
:10083000A00EB11E6B2DC2010E948E046A2DC10153
:100840000E948E0402C000E010E08FEFE81AF80A60
:1008500060E4C7010E948E04C7010E949F048111B9
:10086000FBCF02C000E010E0802F912F28960FB63A
:10087000F894DEBF0FBECDBFDF91CF911F910F91D6
:10088000FF90EF90DF90CF90BF90AF909F908F90B0
:100890007F905F904F903F902F900895BC9A87B3C0
:1008A000806A87BBC69AC49A8DB181658DB9089557
:1008B000E82FF0E0EE0FFF1FE657FF4F8081918198
:1008C0000895E82FF0E0EE0FFF1FEE56FF4F8081F6
:1008D00091810895E82FF0E0EE0FFF1FE656FF4FDD
:1008E000808191810895E82FF0E0EE0FFF1FEE5513
:1008F000FF4F808191810895E82FF0E0EE0FFF1FF8
:10090000E655FF4F808191810895E82FF0E0EE0FCA
:10091000FF1FEE54FF4F808191810895C49820EF0E
:100920002FB9779BFECF9FB9779BFECF8FB9779B6F
:10093000FECF6FB9779BFECFC49A81E00895C4982B
:100940002FE02FB9779BFECF9FB9779BFECF8FB952
:10095000779BFECF1FB8779BFECF8FB1C49A0895C7
:1009600041155105C9F0E62FF72F9A012E0F3F1FB1
:1009700070EFC4987FB9779BFECF9FB9779BFECF6E
:100980008FB9779BFECF61916FB9779BFECFC49AE9
:100990000196E217F30769F7842F952F0895411503
:1009A0005105D1F0E62FF72F9A012E0F3F1F7FE060
:1009B000C4987FB9779BFECF9FB9779BFECF8FB945
:1009C000779BFECF1FB8779BFECF6FB16193C49A20
:1009D0000196E217F30761F7842F952F08951F9270
:1009E0000F920FB60F9211240F900FBE0F901F9011
:1009F00018952F923F924F925F926F927F928F92B3
:100A00009F92AF92BF92CF92DF92EF92FF920F939D
:100A10001F93CF93DF9300D000D000D0CDB7DEB7C7
:100A2000E82EF62E682F8BE190E00E948E046F2D49
:100A30008AE190E00E948E0480E090E49093B300FD
:100A40008093B20080E090E69093AB008093AA0080
:100A5000A2E9B0E06AE870E00F2EFAE98F2EF0E02C
:100A60009F2EF02D0F2EF2EA6F2EF0E07F2EF02D4C
:100A700020E030E0AA24A394B12C00E010E080E054
:100A800090E040E050E04E2C512C2F2C312CBE83B6
:100A9000AD839A8389831C830B83FB0115C00B8173
:100AA0001C810F5F1F4F1C830B838D819E810296DB
:100AB0009E838D8332969FEFA91AB90AA2E08A0E0F
:100AC000911CB2E06B0E711C6D817E81DB011D9269
:100AD0001C92CF01118210824115B0E25B070CF02D
:100AE00046C07201022E02C0F594E7940A94E2F720
:100AF00003E0E022FF2411E0E116F104C1F01CF450
:100B0000EF2851F034C0B2E0EB16F104D9F003E065
:100B1000E016F10461F521C000E014E0DB010D9363
:100B20001C930FEF13E0D3010D931C9320C000E042
:100B300018E0DB010D931C930FEF17E0D3010D9329
:100B40001C9315C000E010E1DB010D931C930FEF27
:100B50001FE0D3010D931C930AC000E010E2DB01FB
:100B60000D931C930FEF1FE1D3010D931C93A981EB
:100B7000BA81A115B0420CF046C07101022E02C02C
:100B8000F594E7940A94E2F713E0E122FF24A1E050
:100B9000EA16F104C1F01CF4EF2851F034C002E071
:100BA000E016F104D9F013E0E116F10461F521C07B
:100BB00000E014E0DC010D931C930FEF13E0D4016F
:100BC0000D931C9320C000E018E0DC010D931C93F2
:100BD0000FEF17E0D4010D931C9315C000E010E156
:100BE000DC010D931C930FEF1FE0D4010D931C93B8
:100BF0000AC000E010E2DC010D931C930FEF1FE12F
:100C0000D4010D931C932E5F3F4FDB01ED90FC90C0
:100C10004E0D5F1DDC01ED90FC9009811A810E0DD7
:100C20001F1D1A830983AB81BC81AB2B09F437CF1D
:100C30000F2EF2EBEF2EF0E0FF2EF02DE20EF31E62
:100C40006701B2E0CB1AD10804E0E01AF108625063
:100C50007109D701ED90FC90DB016D917C91E60E5E
:100C6000F71ED601ED92FC92B90166557F4F7B01CC
:100C7000B2E0EB1AF108645071090297DB016D9143
:100C80007C91DC018D919C91680F791FD7016D9348
:100C90007C93B4E0AB16B1040CF401CF26960FB6EA
:100CA000F894DEBF0FBECDBFDF91CF911F910F91A2
:100CB000FF90EF90DF90CF90BF90AF909F908F907C
:100CC0007F906F905F904F903F902F900895CF93BB
:100CD000DF93EC01688181E090E00E948E046981DD
:100CE00082E090E00E948E046A8183E090E00E949E
:100CF0008E046B8184E090E00E948E04DF91CF919E
:100D00000895FC0180818093BA0081818093BB00AB
:100D100082818093BC0083818093BD00089560919F
:100D2000BA0085E090E00E948E046091BB0086E0EE
:100D300090E00E948E046091BC0087E090E00E94E9
:100D40008E046091BD0088E090E00E948E040895BA
:100D500060E085E090E00E948E0460E086E090E034
:100D60000E948E0460E087E090E00E948E0460E0C4
:100D700088E090E00E948E040895CF93DF93EC0109
:100D8000688189E090E00E948E0469818AE090E0A9
:100D90000E948E046A818BE090E00E948E046B8139
:100DA0008CE090E00E948E046C818DE090E00E94C7
:100DB0008E046D818EE090E00E948E04DF91CF91D1
:100DC0000895CF93DF93EC0168818FE090E00E945B
:100DD0008E04698180E190E00E948E046A8181E145
:100DE00090E00E948E046B8182E190E00E948E046C
:100DF000DF91CF9108959F92AF92BF92CF92DF92F1
:100E0000EF92FF920F931F93CF93DF93982E7B0166
:100E1000EA0189010E947304C823D923892D0E9405
:100E200085046E01C80ED91E5E01A00EB11E892D6B
:100E30000E9461048A159B05A8F49C012C1B3D0BA4
:100E4000E901A901B701C6010E94B004EC0EFD1E24
:100E50000C1B1D0B892D0E948504A801B7010E945F
:100E6000B00405C0A801B701C6010E94B004DF911B
:100E7000CF911F910F91FF90EF90DF90CF90BF9097
:100E8000AF909F9008959F92AF92BF92CF92DF92C2
:100E9000EF92FF920F931F93CF93DF93982E5B01F6
:100EA0008A01E82EF12C84E0E80EF11CFE2CEE24E1
:100EB000670184E2C80ED11CC6010E949F04D82F8E
:100EC00080E0C82F85E2E80EF11CC7010E949F0454
:100ED000C80FD11D9801AE01B501892D0E94FB06F6
:100EE000C00FD11F6D2FC6010E948E046C2FC70149
:100EF0000E948E04DF91CF911F910F91FF90EF9090
:100F0000DF90CF90BF90AF909F9008959F92AF9247
:100F1000BF92CF92DF92EF92FF920F931F93CF93E6
:100F2000DF93982EEB017A0189010E946A04C8239D
:100F3000D923892D0E947C046E01C80ED91E5E0142
:100F4000A00EB11E892D0E9458048A159B05A8F495
:100F50009C012C1B3D0BE901A901B701C6010E94B0
:100F6000CF04EC0EFD1E0C1B1D0B892D0E947C0472
:100F7000A801B7010E94CF0405C0A801B701C601AE
:100F80000E94CF04DF91CF911F910F91FF90EF90BE
:100F9000DF90CF90BF90AF909F900895F894FFCFCF
:100FA00068656C6C6F00008A26E01ADD8369702C1E
:100FB00020706F72742C206661696C6564007469BE
:080FC0006D6564206F7574007B
:00000001FF
